{
  "contractName": "Voting",
  "abi": [
    {
      "inputs": [
        {
          "internalType": "string[]",
          "name": "_candidateNames",
          "type": "string[]"
        },
        {
          "internalType": "address[]",
          "name": "_admins",
          "type": "address[]"
        },
        {
          "internalType": "uint256",
          "name": "_requiredSignatures",
          "type": "uint256"
        }
      ],
      "stateMutability": "nonpayable",
      "type": "constructor"
    },
    {
      "anonymous": false,
      "inputs": [
        {
          "indexed": false,
          "internalType": "enum Voting.Phase",
          "name": "newPhase",
          "type": "uint8"
        }
      ],
      "name": "PhaseChanged",
      "type": "event"
    },
    {
      "anonymous": false,
      "inputs": [
        {
          "indexed": false,
          "internalType": "address",
          "name": "voter",
          "type": "address"
        },
        {
          "indexed": false,
          "internalType": "uint256",
          "name": "candidate",
          "type": "uint256"
        }
      ],
      "name": "VoteCasted",
      "type": "event"
    },
    {
      "anonymous": false,
      "inputs": [
        {
          "indexed": false,
          "internalType": "address",
          "name": "voter",
          "type": "address"
        }
      ],
      "name": "VoterRegistered",
      "type": "event"
    },
    {
      "inputs": [
        {
          "internalType": "uint256",
          "name": "",
          "type": "uint256"
        }
      ],
      "name": "admins",
      "outputs": [
        {
          "internalType": "address",
          "name": "",
          "type": "address"
        }
      ],
      "stateMutability": "view",
      "type": "function",
      "constant": true
    },
    {
      "inputs": [
        {
          "internalType": "uint256",
          "name": "",
          "type": "uint256"
        }
      ],
      "name": "candidates",
      "outputs": [
        {
          "internalType": "string",
          "name": "name",
          "type": "string"
        },
        {
          "internalType": "uint256",
          "name": "voteCount",
          "type": "uint256"
        }
      ],
      "stateMutability": "view",
      "type": "function",
      "constant": true
    },
    {
      "inputs": [],
      "name": "currentPhase",
      "outputs": [
        {
          "internalType": "enum Voting.Phase",
          "name": "",
          "type": "uint8"
        }
      ],
      "stateMutability": "view",
      "type": "function",
      "constant": true
    },
    {
      "inputs": [],
      "name": "requiredSignatures",
      "outputs": [
        {
          "internalType": "uint256",
          "name": "",
          "type": "uint256"
        }
      ],
      "stateMutability": "view",
      "type": "function",
      "constant": true
    },
    {
      "inputs": [
        {
          "internalType": "address",
          "name": "",
          "type": "address"
        }
      ],
      "name": "voterTokens",
      "outputs": [
        {
          "internalType": "uint256",
          "name": "",
          "type": "uint256"
        }
      ],
      "stateMutability": "view",
      "type": "function",
      "constant": true
    },
    {
      "inputs": [
        {
          "internalType": "address",
          "name": "",
          "type": "address"
        }
      ],
      "name": "voters",
      "outputs": [
        {
          "internalType": "bool",
          "name": "isRegistered",
          "type": "bool"
        },
        {
          "internalType": "bool",
          "name": "hasVoted",
          "type": "bool"
        },
        {
          "internalType": "address",
          "name": "delegate",
          "type": "address"
        },
        {
          "internalType": "uint256",
          "name": "vote",
          "type": "uint256"
        }
      ],
      "stateMutability": "view",
      "type": "function",
      "constant": true
    },
    {
      "inputs": [
        {
          "internalType": "bytes32",
          "name": "message",
          "type": "bytes32"
        },
        {
          "internalType": "bytes",
          "name": "sig",
          "type": "bytes"
        }
      ],
      "name": "recoverSigner",
      "outputs": [
        {
          "internalType": "address",
          "name": "",
          "type": "address"
        }
      ],
      "stateMutability": "pure",
      "type": "function",
      "constant": true
    },
    {
      "inputs": [
        {
          "internalType": "address",
          "name": "_addr",
          "type": "address"
        }
      ],
      "name": "isAdmin",
      "outputs": [
        {
          "internalType": "bool",
          "name": "",
          "type": "bool"
        }
      ],
      "stateMutability": "view",
      "type": "function",
      "constant": true
    },
    {
      "inputs": [
        {
          "internalType": "address",
          "name": "_voter",
          "type": "address"
        },
        {
          "internalType": "bytes[]",
          "name": "signatures",
          "type": "bytes[]"
        }
      ],
      "name": "registerVoter",
      "outputs": [],
      "stateMutability": "nonpayable",
      "type": "function"
    },
    {
      "inputs": [
        {
          "internalType": "enum Voting.Phase",
          "name": "_phase",
          "type": "uint8"
        },
        {
          "internalType": "bytes[]",
          "name": "signatures",
          "type": "bytes[]"
        }
      ],
      "name": "changePhase",
      "outputs": [],
      "stateMutability": "nonpayable",
      "type": "function"
    },
    {
      "inputs": [
        {
          "internalType": "uint256",
          "name": "_candidateIndex",
          "type": "uint256"
        }
      ],
      "name": "vote",
      "outputs": [],
      "stateMutability": "nonpayable",
      "type": "function"
    },
    {
      "inputs": [],
      "name": "getCandidatesCount",
      "outputs": [
        {
          "internalType": "uint256",
          "name": "",
          "type": "uint256"
        }
      ],
      "stateMutability": "view",
      "type": "function",
      "constant": true
    },
    {
      "inputs": [
        {
          "internalType": "uint256",
          "name": "index",
          "type": "uint256"
        }
      ],
      "name": "getCandidate",
      "outputs": [
        {
          "internalType": "string",
          "name": "name",
          "type": "string"
        },
        {
          "internalType": "uint256",
          "name": "voteCount",
          "type": "uint256"
        }
      ],
      "stateMutability": "view",
      "type": "function",
      "constant": true
    },
    {
      "inputs": [],
      "name": "getWinner",
      "outputs": [
        {
          "internalType": "string",
          "name": "winnerName",
          "type": "string"
        }
      ],
      "stateMutability": "view",
      "type": "function",
      "constant": true
    },
    {
      "inputs": [],
      "name": "getPhase",
      "outputs": [
        {
          "internalType": "enum Voting.Phase",
          "name": "",
          "type": "uint8"
        }
      ],
      "stateMutability": "view",
      "type": "function",
      "constant": true
    },
    {
      "inputs": [
        {
          "internalType": "address",
          "name": "_voter",
          "type": "address"
        }
      ],
      "name": "isRegistered",
      "outputs": [
        {
          "internalType": "bool",
          "name": "",
          "type": "bool"
        }
      ],
      "stateMutability": "view",
      "type": "function",
      "constant": true
    },
    {
      "inputs": [
        {
          "internalType": "address",
          "name": "_voter",
          "type": "address"
        }
      ],
      "name": "hasVoted",
      "outputs": [
        {
          "internalType": "bool",
          "name": "",
          "type": "bool"
        }
      ],
      "stateMutability": "view",
      "type": "function",
      "constant": true
    },
    {
      "inputs": [
        {
          "internalType": "address[]",
          "name": "_voters",
          "type": "address[]"
        },
        {
          "internalType": "uint256[]",
          "name": "_tokens",
          "type": "uint256[]"
        }
      ],
      "name": "distributeTokens",
      "outputs": [],
      "stateMutability": "nonpayable",
      "type": "function"
    },
    {
      "inputs": [
        {
          "internalType": "address",
          "name": "_voter",
          "type": "address"
        }
      ],
      "name": "getVoterTokens",
      "outputs": [
        {
          "internalType": "uint256",
          "name": "",
          "type": "uint256"
        }
      ],
      "stateMutability": "view",
      "type": "function",
      "constant": true
    }
  ],
  "bytecode": "0x60806040523480156200001157600080fd5b50604051620030d3380380620030d383398181016040528101906200003791906200062e565b80825110156200007e576040517f08c379a000000000000000000000000000000000000000000000000000000000815260040162000075906200074f565b60405180910390fd5b8160009080519060200190620000969291906200017b565b50806001819055506000600260006101000a81548160ff02191690836002811115620000c757620000c662000771565b5b021790555060005b8351811015620001715760036040518060400160405280868481518110620000fc57620000fb620007a0565b5b602002602001015181526020016000815250908060018154018082558091505060019003906000526020600020906002020160009091909190915060008201518160000190816200014e919062000a10565b506020820151816001015550508080620001689062000b26565b915050620000cf565b5050505062000b73565b828054828255906000526020600020908101928215620001f7579160200282015b82811115620001f65782518260006101000a81548173ffffffffffffffffffffffffffffffffffffffff021916908373ffffffffffffffffffffffffffffffffffffffff160217905550916020019190600101906200019c565b5b5090506200020691906200020a565b5090565b5b80821115620002255760008160009055506001016200020b565b5090565b6000604051905090565b600080fd5b600080fd5b600080fd5b6000601f19601f8301169050919050565b7f4e487b7100000000000000000000000000000000000000000000000000000000600052604160045260246000fd5b6200028d8262000242565b810181811067ffffffffffffffff82111715620002af57620002ae62000253565b5b80604052505050565b6000620002c462000229565b9050620002d2828262000282565b919050565b600067ffffffffffffffff821115620002f557620002f462000253565b5b602082029050602081019050919050565b600080fd5b600080fd5b600067ffffffffffffffff8211156200032e576200032d62000253565b5b620003398262000242565b9050602081019050919050565b60005b838110156200036657808201518184015260208101905062000349565b60008484015250505050565b600062000389620003838462000310565b620002b8565b905082815260208101848484011115620003a857620003a76200030b565b5b620003b584828562000346565b509392505050565b600082601f830112620003d557620003d46200023d565b5b8151620003e784826020860162000372565b91505092915050565b6000620004076200040184620002d7565b620002b8565b905080838252602082019050602084028301858111156200042d576200042c62000306565b5b835b818110156200047b57805167ffffffffffffffff8111156200045657620004556200023d565b5b808601620004658982620003bd565b855260208501945050506020810190506200042f565b5050509392505050565b600082601f8301126200049d576200049c6200023d565b5b8151620004af848260208601620003f0565b91505092915050565b600067ffffffffffffffff821115620004d657620004d562000253565b5b602082029050602081019050919050565b600073ffffffffffffffffffffffffffffffffffffffff82169050919050565b60006200051482620004e7565b9050919050565b620005268162000507565b81146200053257600080fd5b50565b60008151905062000546816200051b565b92915050565b6000620005636200055d84620004b8565b620002b8565b9050808382526020820190506020840283018581111562000589576200058862000306565b5b835b81811015620005b65780620005a1888262000535565b8452602084019350506020810190506200058b565b5050509392505050565b600082601f830112620005d857620005d76200023d565b5b8151620005ea8482602086016200054c565b91505092915050565b6000819050919050565b6200060881620005f3565b81146200061457600080fd5b50565b6000815190506200062881620005fd565b92915050565b6000806000606084860312156200064a576200064962000233565b5b600084015167ffffffffffffffff8111156200066b576200066a62000238565b5b620006798682870162000485565b935050602084015167ffffffffffffffff8111156200069d576200069c62000238565b5b620006ab86828701620005c0565b9250506040620006be8682870162000617565b9150509250925092565b600082825260208201905092915050565b7f4e6f7420656e6f7567682061646d696e7320666f72207265717569726564207360008201527f69676e6174757265730000000000000000000000000000000000000000000000602082015250565b600062000737602983620006c8565b91506200074482620006d9565b604082019050919050565b600060208201905081810360008301526200076a8162000728565b9050919050565b7f4e487b7100000000000000000000000000000000000000000000000000000000600052602160045260246000fd5b7f4e487b7100000000000000000000000000000000000000000000000000000000600052603260045260246000fd5b600081519050919050565b7f4e487b7100000000000000000000000000000000000000000000000000000000600052602260045260246000fd5b600060028204905060018216806200082257607f821691505b602082108103620008385762000837620007da565b5b50919050565b60008190508160005260206000209050919050565b60006020601f8301049050919050565b600082821b905092915050565b600060088302620008a27fffffffffffffffffffffffffffffffffffffffffffffffffffffffffffffffff8262000863565b620008ae868362000863565b95508019841693508086168417925050509392505050565b6000819050919050565b6000620008f1620008eb620008e584620005f3565b620008c6565b620005f3565b9050919050565b6000819050919050565b6200090d83620008d0565b620009256200091c82620008f8565b84845462000870565b825550505050565b600090565b6200093c6200092d565b6200094981848462000902565b505050565b5b8181101562000971576200096560008262000932565b6001810190506200094f565b5050565b601f821115620009c0576200098a816200083e565b620009958462000853565b81016020851015620009a5578190505b620009bd620009b48562000853565b8301826200094e565b50505b505050565b600082821c905092915050565b6000620009e560001984600802620009c5565b1980831691505092915050565b600062000a008383620009d2565b9150826002028217905092915050565b62000a1b82620007cf565b67ffffffffffffffff81111562000a375762000a3662000253565b5b62000a43825462000809565b62000a5082828562000975565b600060209050601f83116001811462000a88576000841562000a73578287015190505b62000a7f8582620009f2565b86555062000aef565b601f19841662000a98866200083e565b60005b8281101562000ac25784890151825560018201915060208501945060208101905062000a9b565b8683101562000ae2578489015162000ade601f891682620009d2565b8355505b6001600288020188555050505b505050505050565b7f4e487b7100000000000000000000000000000000000000000000000000000000600052601160045260246000fd5b600062000b3382620005f3565b91507fffffffffffffffffffffffffffffffffffffffffffffffffffffffffffffffff820362000b685762000b6762000af7565b5b600182019050919050565b6125508062000b836000396000f3fe608060405234801561001057600080fd5b50600436106101215760003560e01c80636522ac6e116100ad578063bb9aa28f11610071578063bb9aa28f14610359578063c3c5a54714610377578063ea8ee5d0146103a7578063eced0280146103d7578063f9678a7b146103f557610121565b80636522ac6e1461029e5780638d068043146102ba5780638e7ea5b2146102d857806397aba7f9146102f6578063a3ec138d1461032657610121565b806324d7806c116100f457806324d7806c146101c05780633477ee2e146101f057806335b8e820146102215780634bd09c2a1461025257806354bddca51461026e57610121565b80630121b93f14610126578063055ad42e1461014257806309eef43e1461016057806314bfd6d014610190575b600080fd5b610140600480360381019061013b9190611368565b610411565b005b61014a610654565b604051610157919061140c565b60405180910390f35b61017a60048036038101906101759190611485565b610667565b60405161018791906114cd565b60405180910390f35b6101aa60048036038101906101a59190611368565b6106c0565b6040516101b791906114f7565b60405180910390f35b6101da60048036038101906101d59190611485565b6106ff565b6040516101e791906114cd565b60405180910390f35b61020a60048036038101906102059190611368565b6107ad565b6040516102189291906115b1565b60405180910390f35b61023b60048036038101906102369190611368565b610869565b6040516102499291906115b1565b60405180910390f35b61026c600480360381019061026791906117ec565b610979565b005b61028860048036038101906102839190611485565b610ab3565b6040516102959190611864565b60405180910390f35b6102b860048036038101906102b39190611a15565b610afc565b005b6102c2610c95565b6040516102cf9190611864565b60405180910390f35b6102e0610c9b565b6040516102ed9190611a71565b60405180910390f35b610310600480360381019061030b9190611ac9565b610e47565b60405161031d91906114f7565b60405180910390f35b610340600480360381019061033b9190611485565b610f0c565b6040516103509493929190611b25565b60405180910390f35b610361610f76565b60405161036e9190611864565b60405180910390f35b610391600480360381019061038c9190611485565b610f83565b60405161039e91906114cd565b60405180910390f35b6103c160048036038101906103bc9190611485565b610fdc565b6040516103ce9190611864565b60405180910390f35b6103df610ff4565b6040516103ec919061140c565b60405180910390f35b61040f600480360381019061040a9190611b8f565b61100b565b005b6001600281111561042557610424611395565b5b600260009054906101000a900460ff16600281111561044757610446611395565b5b14610487576040517f08c379a000000000000000000000000000000000000000000000000000000000815260040161047e90611c37565b60405180910390fd5b6000600460003373ffffffffffffffffffffffffffffffffffffffff1673ffffffffffffffffffffffffffffffffffffffff16815260200190815260200160002090508060000160009054906101000a900460ff1661051b576040517f08c379a000000000000000000000000000000000000000000000000000000000815260040161051290611ca3565b60405180910390fd5b8060000160019054906101000a900460ff161561056d576040517f08c379a000000000000000000000000000000000000000000000000000000000815260040161056490611d0f565b60405180910390fd5b60038054905082106105b4576040517f08c379a00000000000000000000000000000000000000000000000000000000081526004016105ab90611d7b565b60405180910390fd5b60018160000160016101000a81548160ff0219169083151502179055508181600101819055506001600383815481106105f0576105ef611d9b565b5b906000526020600020906002020160010160008282546106109190611df9565b925050819055507fd0e6c39f2e086dc49f1524b47725526a56945cd1ff661f37976f1725a1e569863383604051610648929190611e2d565b60405180910390a15050565b600260009054906101000a900460ff1681565b6000600460008373ffffffffffffffffffffffffffffffffffffffff1673ffffffffffffffffffffffffffffffffffffffff16815260200190815260200160002060000160019054906101000a900460ff169050919050565b600081815481106106d057600080fd5b906000526020600020016000915054906101000a900473ffffffffffffffffffffffffffffffffffffffff1681565b600080600090505b6000805490508110156107a2578273ffffffffffffffffffffffffffffffffffffffff166000828154811061073f5761073e611d9b565b5b9060005260206000200160009054906101000a900473ffffffffffffffffffffffffffffffffffffffff1673ffffffffffffffffffffffffffffffffffffffff160361078f5760019150506107a8565b808061079a90611e56565b915050610707565b50600090505b919050565b600381815481106107bd57600080fd5b90600052602060002090600202016000915090508060000180546107e090611ecd565b80601f016020809104026020016040519081016040528092919081815260200182805461080c90611ecd565b80156108595780601f1061082e57610100808354040283529160200191610859565b820191906000526020600020905b81548152906001019060200180831161083c57829003601f168201915b5050505050908060010154905082565b6060600060038054905083106108b4576040517f08c379a00000000000000000000000000000000000000000000000000000000081526004016108ab90611f4a565b60405180910390fd5b6000600384815481106108ca576108c9611d9b565b5b906000526020600020906002020190508060000181600101548180546108ef90611ecd565b80601f016020809104026020016040519081016040528092919081815260200182805461091b90611ecd565b80156109685780601f1061093d57610100808354040283529160200191610968565b820191906000526020600020905b81548152906001019060200180831161094b57829003601f168201915b505050505091509250925050915091565b610982336106ff565b6109c1576040517f08c379a00000000000000000000000000000000000000000000000000000000081526004016109b890611fb6565b60405180910390fd5b8051825114610a05576040517f08c379a00000000000000000000000000000000000000000000000000000000081526004016109fc90612048565b60405180910390fd5b60005b8251811015610aae57818181518110610a2457610a23611d9b565b5b602002602001015160056000858481518110610a4357610a42611d9b565b5b602002602001015173ffffffffffffffffffffffffffffffffffffffff1673ffffffffffffffffffffffffffffffffffffffff1681526020019081526020016000206000828254610a949190611df9565b925050819055508080610aa690611e56565b915050610a08565b505050565b6000600560008373ffffffffffffffffffffffffffffffffffffffff1673ffffffffffffffffffffffffffffffffffffffff168152602001908152602001600020549050919050565b81604051602001610b0d9190612107565b6040516020818303038152906040528051906020012081610b2e8282611158565b610b6d576040517f08c379a0000000000000000000000000000000000000000000000000000000008152600401610b649061219f565b60405180910390fd5b600460008573ffffffffffffffffffffffffffffffffffffffff1673ffffffffffffffffffffffffffffffffffffffff16815260200190815260200160002060000160009054906101000a900460ff1615610bfd576040517f08c379a0000000000000000000000000000000000000000000000000000000008152600401610bf49061220b565b60405180910390fd5b6001600460008673ffffffffffffffffffffffffffffffffffffffff1673ffffffffffffffffffffffffffffffffffffffff16815260200190815260200160002060000160006101000a81548160ff0219169083151502179055507fb6be2187d059cc2a55fe29e0e503b566e1e0f8c8780096e185429350acffd3dd84604051610c8791906114f7565b60405180910390a150505050565b60015481565b6060600280811115610cb057610caf611395565b5b600260009054906101000a900460ff166002811115610cd257610cd1611395565b5b14610d12576040517f08c379a0000000000000000000000000000000000000000000000000000000008152600401610d0990612277565b60405180910390fd5b60008060005b600380549050811015610d91578260038281548110610d3a57610d39611d9b565b5b9060005260206000209060020201600101541115610d7e5760038181548110610d6657610d65611d9b565b5b90600052602060002090600202016001015492508091505b8080610d8990611e56565b915050610d18565b5060038181548110610da657610da5611d9b565b5b90600052602060002090600202016000018054610dc290611ecd565b80601f0160208091040260200160405190810160405280929190818152602001828054610dee90611ecd565b8015610e3b5780601f10610e1057610100808354040283529160200191610e3b565b820191906000526020600020905b815481529060010190602001808311610e1e57829003601f168201915b50505050509250505090565b60006041825114610e8d576040517f08c379a0000000000000000000000000000000000000000000000000000000008152600401610e84906122e3565b60405180910390fd5b60008060006020850151925060408501519150606085015160001a90506001610eb5876112ee565b82858560405160008152602001604052604051610ed5949392919061232e565b6020604051602081039080840390855afa158015610ef7573d6000803e3d6000fd5b50505060206040510351935050505092915050565b60046020528060005260406000206000915090508060000160009054906101000a900460ff16908060000160019054906101000a900460ff16908060000160029054906101000a900473ffffffffffffffffffffffffffffffffffffffff16908060010154905084565b6000600380549050905090565b6000600460008373ffffffffffffffffffffffffffffffffffffffff1673ffffffffffffffffffffffffffffffffffffffff16815260200190815260200160002060000160009054906101000a900460ff169050919050565b60056020528060005260406000206000915090505481565b6000600260009054906101000a900460ff16905090565b8160405160200161101c91906123f5565b604051602081830303815290604052805190602001208161103d8282611158565b61107c576040517f08c379a00000000000000000000000000000000000000000000000000000000081526004016110739061219f565b60405180910390fd5b600260009054906101000a900460ff16600281111561109e5761109d611395565b5b8460028111156110b1576110b0611395565b5b116110f1576040517f08c379a00000000000000000000000000000000000000000000000000000000081526004016110e890612467565b60405180910390fd5b83600260006101000a81548160ff0219169083600281111561111657611115611395565b5b02179055507fa6dcc92f45df25789d5639b7a0c97ba1edf3bb1c0b5dd3376fd96a0db87c46428460405161114a919061140c565b60405180910390a150505050565b600080600090506000835167ffffffffffffffff81111561117c5761117b6115e6565b5b6040519080825280602002602001820160405280156111aa5781602001602082028036833780820191505090505b50905060005b84518110156112dd5760006111df878784815181106111d2576111d1611d9b565b5b6020026020010151610e47565b90506111ea816106ff565b156112c9576000805b83811015611264578273ffffffffffffffffffffffffffffffffffffffff1685828151811061122557611224611d9b565b5b602002602001015173ffffffffffffffffffffffffffffffffffffffff16036112515760019150611264565b808061125c90611e56565b9150506111f3565b50806112c7578184868151811061127e5761127d611d9b565b5b602002602001019073ffffffffffffffffffffffffffffffffffffffff16908173ffffffffffffffffffffffffffffffffffffffff168152505084806112c390611e56565b9550505b505b5080806112d590611e56565b9150506111b0565b506001548210159250505092915050565b60008160405160200161130191906124f4565b604051602081830303815290604052805190602001209050919050565b6000604051905090565b600080fd5b600080fd5b6000819050919050565b61134581611332565b811461135057600080fd5b50565b6000813590506113628161133c565b92915050565b60006020828403121561137e5761137d611328565b5b600061138c84828501611353565b91505092915050565b7f4e487b7100000000000000000000000000000000000000000000000000000000600052602160045260246000fd5b600381106113d5576113d4611395565b5b50565b60008190506113e6826113c4565b919050565b60006113f6826113d8565b9050919050565b611406816113eb565b82525050565b600060208201905061142160008301846113fd565b92915050565b600073ffffffffffffffffffffffffffffffffffffffff82169050919050565b600061145282611427565b9050919050565b61146281611447565b811461146d57600080fd5b50565b60008135905061147f81611459565b92915050565b60006020828403121561149b5761149a611328565b5b60006114a984828501611470565b91505092915050565b60008115159050919050565b6114c7816114b2565b82525050565b60006020820190506114e260008301846114be565b92915050565b6114f181611447565b82525050565b600060208201905061150c60008301846114e8565b92915050565b600081519050919050565b600082825260208201905092915050565b60005b8381101561154c578082015181840152602081019050611531565b60008484015250505050565b6000601f19601f8301169050919050565b600061157482611512565b61157e818561151d565b935061158e81856020860161152e565b61159781611558565b840191505092915050565b6115ab81611332565b82525050565b600060408201905081810360008301526115cb8185611569565b90506115da60208301846115a2565b9392505050565b600080fd5b7f4e487b7100000000000000000000000000000000000000000000000000000000600052604160045260246000fd5b61161e82611558565b810181811067ffffffffffffffff8211171561163d5761163c6115e6565b5b80604052505050565b600061165061131e565b905061165c8282611615565b919050565b600067ffffffffffffffff82111561167c5761167b6115e6565b5b602082029050602081019050919050565b600080fd5b60006116a56116a084611661565b611646565b905080838252602082019050602084028301858111156116c8576116c761168d565b5b835b818110156116f157806116dd8882611470565b8452602084019350506020810190506116ca565b5050509392505050565b600082601f8301126117105761170f6115e1565b5b8135611720848260208601611692565b91505092915050565b600067ffffffffffffffff821115611744576117436115e6565b5b602082029050602081019050919050565b600061176861176384611729565b611646565b9050808382526020820190506020840283018581111561178b5761178a61168d565b5b835b818110156117b457806117a08882611353565b84526020840193505060208101905061178d565b5050509392505050565b600082601f8301126117d3576117d26115e1565b5b81356117e3848260208601611755565b91505092915050565b6000806040838503121561180357611802611328565b5b600083013567ffffffffffffffff8111156118215761182061132d565b5b61182d858286016116fb565b925050602083013567ffffffffffffffff81111561184e5761184d61132d565b5b61185a858286016117be565b9150509250929050565b600060208201905061187960008301846115a2565b92915050565b600067ffffffffffffffff82111561189a576118996115e6565b5b602082029050602081019050919050565b600080fd5b600067ffffffffffffffff8211156118cb576118ca6115e6565b5b6118d482611558565b9050602081019050919050565b82818337600083830152505050565b60006119036118fe846118b0565b611646565b90508281526020810184848401111561191f5761191e6118ab565b5b61192a8482856118e1565b509392505050565b600082601f830112611947576119466115e1565b5b81356119578482602086016118f0565b91505092915050565b600061197361196e8461187f565b611646565b905080838252602082019050602084028301858111156119965761199561168d565b5b835b818110156119dd57803567ffffffffffffffff8111156119bb576119ba6115e1565b5b8086016119c88982611932565b85526020850194505050602081019050611998565b5050509392505050565b600082601f8301126119fc576119fb6115e1565b5b8135611a0c848260208601611960565b91505092915050565b60008060408385031215611a2c57611a2b611328565b5b6000611a3a85828601611470565b925050602083013567ffffffffffffffff811115611a5b57611a5a61132d565b5b611a67858286016119e7565b9150509250929050565b60006020820190508181036000830152611a8b8184611569565b905092915050565b6000819050919050565b611aa681611a93565b8114611ab157600080fd5b50565b600081359050611ac381611a9d565b92915050565b60008060408385031215611ae057611adf611328565b5b6000611aee85828601611ab4565b925050602083013567ffffffffffffffff811115611b0f57611b0e61132d565b5b611b1b85828601611932565b9150509250929050565b6000608082019050611b3a60008301876114be565b611b4760208301866114be565b611b5460408301856114e8565b611b6160608301846115a2565b95945050505050565b60038110611b7757600080fd5b50565b600081359050611b8981611b6a565b92915050565b60008060408385031215611ba657611ba5611328565b5b6000611bb485828601611b7a565b925050602083013567ffffffffffffffff811115611bd557611bd461132d565b5b611be1858286016119e7565b9150509250929050565b7f566f74696e67207068617365206973206e6f7420616374697665000000000000600082015250565b6000611c21601a8361151d565b9150611c2c82611beb565b602082019050919050565b60006020820190508181036000830152611c5081611c14565b9050919050565b7f4e6f74207265676973746572656420746f20766f74652e000000000000000000600082015250565b6000611c8d60178361151d565b9150611c9882611c57565b602082019050919050565b60006020820190508181036000830152611cbc81611c80565b9050919050565b7f416c726561647920766f7465642e000000000000000000000000000000000000600082015250565b6000611cf9600e8361151d565b9150611d0482611cc3565b602082019050919050565b60006020820190508181036000830152611d2881611cec565b9050919050565b7f496e76616c69642063616e6469646174652e0000000000000000000000000000600082015250565b6000611d6560128361151d565b9150611d7082611d2f565b602082019050919050565b60006020820190508181036000830152611d9481611d58565b9050919050565b7f4e487b7100000000000000000000000000000000000000000000000000000000600052603260045260246000fd5b7f4e487b7100000000000000000000000000000000000000000000000000000000600052601160045260246000fd5b6000611e0482611332565b9150611e0f83611332565b9250828201905080821115611e2757611e26611dca565b5b92915050565b6000604082019050611e4260008301856114e8565b611e4f60208301846115a2565b9392505050565b6000611e6182611332565b91507fffffffffffffffffffffffffffffffffffffffffffffffffffffffffffffffff8203611e9357611e92611dca565b5b600182019050919050565b7f4e487b7100000000000000000000000000000000000000000000000000000000600052602260045260246000fd5b60006002820490506001821680611ee557607f821691505b602082108103611ef857611ef7611e9e565b5b50919050565b7f496e76616c69642063616e64696461746520696e646578000000000000000000600082015250565b6000611f3460178361151d565b9150611f3f82611efe565b602082019050919050565b60006020820190508181036000830152611f6381611f27565b9050919050565b7f596f75206d75737420626520616e2061646d696e2e0000000000000000000000600082015250565b6000611fa060158361151d565b9150611fab82611f6a565b602082019050919050565b60006020820190508181036000830152611fcf81611f93565b9050919050565b7f566f7465727320616e6420746f6b656e7320617272617973206d75737420686160008201527f7665207468652073616d65206c656e6774682e00000000000000000000000000602082015250565b600061203260338361151d565b915061203d82611fd6565b604082019050919050565b6000602082019050818103600083015261206181612025565b9050919050565b600081905092915050565b7f7265676973746572566f74657200000000000000000000000000000000000000600082015250565b60006120a9600d83612068565b91506120b482612073565b600d82019050919050565b60008160601b9050919050565b60006120d7826120bf565b9050919050565b60006120e9826120cc565b9050919050565b6121016120fc82611447565b6120de565b82525050565b60006121128261209c565b915061211e82846120f0565b60148201915081905092915050565b7f4d756c74692d7369676e617475726520766572696669636174696f6e2066616960008201527f6c65640000000000000000000000000000000000000000000000000000000000602082015250565b600061218960238361151d565b91506121948261212d565b604082019050919050565b600060208201905081810360008301526121b88161217c565b9050919050565b7f566f74657220616c726561647920726567697374657265642e00000000000000600082015250565b60006121f560198361151d565b9150612200826121bf565b602082019050919050565b60006020820190508181036000830152612224816121e8565b9050919050565b7f566f74696e6720686173206e6f7420656e646564000000000000000000000000600082015250565b600061226160148361151d565b915061226c8261222b565b602082019050919050565b6000602082019050818103600083015261229081612254565b9050919050565b7f496e76616c6964207369676e6174757265206c656e6774680000000000000000600082015250565b60006122cd60188361151d565b91506122d882612297565b602082019050919050565b600060208201905081810360008301526122fc816122c0565b9050919050565b61230c81611a93565b82525050565b600060ff82169050919050565b61232881612312565b82525050565b60006080820190506123436000830187612303565b612350602083018661231f565b61235d6040830185612303565b61236a6060830184612303565b95945050505050565b7f6368616e67655068617365000000000000000000000000000000000000000000600082015250565b60006123a9600b83612068565b91506123b482612373565b600b82019050919050565b60008160f81b9050919050565b60006123d7826123bf565b9050919050565b6123ef6123ea826113eb565b6123cc565b82525050565b60006124008261239c565b915061240c82846123de565b60018201915081905092915050565b7f43616e206f6e6c79206d6f766520746f206e6578742070686173650000000000600082015250565b6000612451601b8361151d565b915061245c8261241b565b602082019050919050565b6000602082019050818103600083015261248081612444565b9050919050565b7f19457468657265756d205369676e6564204d6573736167653a0a333200000000600082015250565b60006124bd601c83612068565b91506124c882612487565b601c82019050919050565b6000819050919050565b6124ee6124e982611a93565b6124d3565b82525050565b60006124ff826124b0565b915061250b82846124dd565b6020820191508190509291505056fea26469706673582212201640f3b40a8b2425833ed796bce7b924017bca191a797311863715c6c8a5651d64736f6c63430008130033",
  "immutableReferences": {},
  "source": "// SPDX-License-Identifier: MIT\r\npragma solidity ^0.8.19;\r\n\r\ncontract Voting {\r\n    // Define a list of admin addresses for multi-signature protection.\r\n    address[] public admins;\r\n    uint public requiredSignatures;\r\n\r\n    // Voting phases.\r\n    enum Phase { Registration, Voting, Ended }\r\n    Phase public currentPhase;\r\n\r\n    // Structures for candidate and voter.\r\n    struct Candidate {\r\n        string name;\r\n        uint voteCount;\r\n    }\r\n\r\n    struct Voter {\r\n        bool isRegistered;\r\n        bool hasVoted;\r\n        address delegate;\r\n        uint vote;\r\n    }\r\n\r\n    Candidate[] public candidates;\r\n    mapping(address => Voter) public voters;\r\n\r\n    // Events to help track actions.\r\n    event VoterRegistered(address voter);\r\n    event VoteCasted(address voter, uint candidate);\r\n    event PhaseChanged(Phase newPhase);\r\n\r\n    // --- Constructor ---\r\n    // Now you pass candidate names, an array of admin addresses, and how many signatures you require.\r\n    constructor(\r\n        string[] memory _candidateNames, \r\n        address[] memory _admins, \r\n        uint _requiredSignatures\r\n    ) {\r\n        // Check that the number of admins is at least the required signatures.\r\n        require(_admins.length >= _requiredSignatures, \"Not enough admins for required signatures\");\r\n        admins = _admins;\r\n        requiredSignatures = _requiredSignatures;\r\n        currentPhase = Phase.Registration;\r\n\r\n        // Add candidates.\r\n        for (uint i = 0; i < _candidateNames.length; i++) {\r\n            candidates.push(Candidate({name: _candidateNames[i], voteCount: 0}));\r\n        }\r\n    }\r\n\r\n    // --- Multi-signature verification mechanism ---\r\n    // This modifier verifies that the provided signatures meet the required count.\r\n    modifier multiSigCheck(bytes32 _dataHash, bytes[] memory signatures) {\r\n        require(_verifyMultiSig(_dataHash, signatures), \"Multi-signature verification failed\");\r\n        _;\r\n    }\r\n\r\n    // Loop through each signature and verify if it came from an admin.\r\n    function _verifyMultiSig(bytes32 _dataHash, bytes[] memory signatures) internal view returns (bool) {\r\n        uint validSigCount = 0;\r\n        address[] memory seen = new address[](signatures.length);\r\n\r\n        for (uint i = 0; i < signatures.length; i++) {\r\n            address signer = recoverSigner(_dataHash, signatures[i]);\r\n            if (isAdmin(signer)) {\r\n                // Check against duplicates.\r\n                bool duplicate = false;\r\n                for (uint j = 0; j < i; j++) {\r\n                    if (seen[j] == signer) {\r\n                        duplicate = true;\r\n                        break;\r\n                    }\r\n                }\r\n                if (!duplicate) {\r\n                    seen[validSigCount] = signer;\r\n                    validSigCount++;\r\n                }\r\n            }\r\n        }\r\n        return (validSigCount >= requiredSignatures);\r\n    }\r\n\r\n    // Recover signer address from a given signature.\r\n    function recoverSigner(bytes32 message, bytes memory sig) public pure returns (address) {\r\n        require(sig.length == 65, \"Invalid signature length\");\r\n        bytes32 r;\r\n        bytes32 s;\r\n        uint8 v;\r\n        // Use assembly to extract r, s, and v from the signature.\r\n        assembly {\r\n            r := mload(add(sig, 32))\r\n            s := mload(add(sig, 64))\r\n            v := byte(0, mload(add(sig, 96)))\r\n        }\r\n        return ecrecover(prefixed(message), v, r, s);\r\n    }\r\n\r\n    // Prefix the hash as used in the personal_sign method.\r\n    function prefixed(bytes32 hash) internal pure returns (bytes32) {\r\n        return keccak256(abi.encodePacked(\"\\x19Ethereum Signed Message:\\n32\", hash));\r\n    }\r\n\r\n    // Check if an address is in the list of admin addresses.\r\n    function isAdmin(address _addr) public view returns (bool) {\r\n        for (uint i = 0; i < admins.length; i++) {\r\n            if (admins[i] == _addr) {\r\n                return true;\r\n            }\r\n        }\r\n        return false;\r\n    }\r\n\r\n    // --- Functions protected by multi-signature ---\r\n\r\n    // Voter registration now requires multi-signature verification.\r\n    // When calling, pass a bytes[] array of signatures (from admin accounts) for the message:\r\n    // keccak256(abi.encodePacked(\"registerVoter\", _voter))\r\n    function registerVoter(address _voter, bytes[] memory signatures)\r\n        public\r\n        multiSigCheck(keccak256(abi.encodePacked(\"registerVoter\", _voter)), signatures)\r\n    {\r\n        require(!voters[_voter].isRegistered, \"Voter already registered.\");\r\n        voters[_voter].isRegistered = true;\r\n        emit VoterRegistered(_voter);\r\n    }\r\n\r\n    // Change the phase with multi-signature verification.\r\n    // The message should be: keccak256(abi.encodePacked(\"changePhase\", _phase))\r\n    function changePhase(Phase _phase, bytes[] memory signatures)\r\n        public\r\n        multiSigCheck(keccak256(abi.encodePacked(\"changePhase\", _phase)), signatures)\r\n    {\r\n        require(uint(_phase) > uint(currentPhase), \"Can only move to next phase\");\r\n        currentPhase = _phase;\r\n        emit PhaseChanged(_phase);\r\n    }\r\n\r\n    // --- Voting function ---\r\n    function vote(uint _candidateIndex) public {\r\n        // Check that the current phase is Voting.\r\n        require(currentPhase == Phase.Voting, \"Voting phase is not active\");\r\n        Voter storage sender = voters[msg.sender];\r\n        require(sender.isRegistered, \"Not registered to vote.\");\r\n        require(!sender.hasVoted, \"Already voted.\");\r\n        require(_candidateIndex < candidates.length, \"Invalid candidate.\");\r\n\r\n        sender.hasVoted = true;\r\n        sender.vote = _candidateIndex;\r\n        candidates[_candidateIndex].voteCount += 1;\r\n        emit VoteCasted(msg.sender, _candidateIndex);\r\n    }\r\n\r\n    // --- Getter functions ---\r\n    function getCandidatesCount() public view returns (uint) {\r\n        return candidates.length;\r\n    }\r\n\r\n    function getCandidate(uint index) public view returns (string memory name, uint voteCount) {\r\n        require(index < candidates.length, \"Invalid candidate index\");\r\n        Candidate storage candidate = candidates[index];\r\n        return (candidate.name, candidate.voteCount);\r\n    }\r\n\r\n    function getWinner() public view returns (string memory winnerName) {\r\n        require(currentPhase == Phase.Ended, \"Voting has not ended\");\r\n        uint maxVotes = 0;\r\n        uint winnerIndex = 0;\r\n        for (uint i = 0; i < candidates.length; i++) {\r\n            if (candidates[i].voteCount > maxVotes) {\r\n                maxVotes = candidates[i].voteCount;\r\n                winnerIndex = i;\r\n            }\r\n        }\r\n        winnerName = candidates[winnerIndex].name;\r\n    }\r\n\r\n    function getPhase() public view returns (Phase) {\r\n        return currentPhase;\r\n    }\r\n\r\n    function isRegistered(address _voter) public view returns (bool) {\r\n        return voters[_voter].isRegistered;\r\n    }\r\n\r\n    function hasVoted(address _voter) public view returns (bool) {\r\n        return voters[_voter].hasVoted;\r\n    }\r\n\r\n    // --- Additional Functionality for Token-based Voting ---\r\n    // Add a token balance to each voter.\r\n    mapping(address => uint) public voterTokens;\r\n\r\n    // A function to distribute tokens for voting.\r\n    function distributeTokens(address[] memory _voters, uint[] memory _tokens) public onlyAdmin {\r\n        require(_voters.length == _tokens.length, \"Voters and tokens arrays must have the same length.\");\r\n        for (uint i = 0; i < _voters.length; i++) {\r\n            voterTokens[_voters[i]] += _tokens[i];\r\n        }\r\n    }\r\n\r\n    // Check the number of tokens a voter has.\r\n    function getVoterTokens(address _voter) public view returns (uint) {\r\n        return voterTokens[_voter];\r\n    }\r\n\r\n    // Modifier to restrict access to admin only.\r\n    modifier onlyAdmin() {\r\n        require(isAdmin(msg.sender), \"You must be an admin.\");\r\n        _;\r\n    }\r\n}\r\n",
  "sourcePath": "C:\\Users\\LENOVO\\Desktop\\Voting\\contracts\\Voting.sol",
  "compiler": {
    "name": "solc",
    "version": "0.8.19+commit.7dd6d404.Emscripten.clang"
  },
  "schemaVersion": "3.4.16",
  "updatedAt": "2025-04-16T09:07:12.213Z",
  "networkType": "ethereum",
  "devdoc": {
    "kind": "dev",
    "methods": {},
    "version": 1
  },
  "userdoc": {
    "kind": "user",
    "methods": {},
    "version": 1
  }
}